:0A142F00E4F5B2F5B1F5CAF5C922E3
:1013AE0012142F120D341212BD7B01E4FDFCFF123C
:0B13BE000BDB7FC87E0012139180EE55
:100003000000000000000000002F000000000700B7
:10001300070000147F147F1400242A7F2A12006231
:1000230064081323003649552250000005030000DD
:1000330000001C224100000041221C000014083E65
:1000430008140008083E0808000000A0600000082B
:10005300080808080000606000000020100804027F
:10006300003E5149453E0000427F4000004261513D
:100073004946002141454B31001814127F100027D7
:1000830045454539003C4A4949300001710905039A
:1000930000364949493600064949291E00003636CB
:1000A300000000005636000000081422410000142E
:1000B300141414140000412214080002015109060B
:1000C30000324959513E007C1211127C007F49498C
:1000D3004936003E41414122007F4141221C007FBD
:1000E30049494941007F09090901003E4149497ACB
:1000F300007F0808087F0000417F41000020404145
:100103003F01007F08142241007F40404040007FB0
:10011300020C027F007F0408107F003E4141413EF4
:10012300007F09090906003E4151215E007F09193C
:1001330029460046494949310001017F0101003F39
:100143004040403F001F2040201F003F4038403FB9
:10015300006314081463000708700807006151491D
:10016300454300007F41410000552A552A550000B0
:1001730041417F000004020102040040404040402E
:10018300000001020400002054545478007F4844C6
:10019300443800384444442000384444487F0038FD
:1001A3005454541800087E0901020018A4A4A47C26
:1001B300007F080404780000447D400000408084F0
:1001C3007D00007F102844000000417F4000007C38
:1001D30004180478007C0804047800384444443844
:1001E30000FC242424180018242418FC007C080490
:1001F300040800485454542000043F444020003C69
:100203004040207C001C2040201C003C4030403CEF
:10021300004428102844001CA0A0A07C004464547F
:100223004C441414141414140000000000000000C3
:100233000000000000000000000000F800000000C3
:10024300000000333000000000100C06100C060004
:10025300000000000000000040C07840C07840006B
:10026300043F04043F040400007088FC08300000CD
:10027300001820FF211E0000F008F000E018000025
:1002830000211C031E211E0000F0088870000000DE
:100293001E2123241927211010160E000000000030
:1002A3000000000000000000000000E0180402004D
:1002B300000000071820400000020418E0000000BE
:1002C3000040201807000000404080F080404000BC
:1002D3000202010F01020200000000F00000000012
:1002E3000101011F010101000000000000000000E6
:1002F30080B070000000000000000000000000005B
:1003030000010101010101010000000000000000E3
:10031300003030000000000000000000806018047E
:10032300006018060100000000E010080810E0005B
:10033300000F102020100F00001010F80000000024
:100343000020203F2020000000700808088870006B
:1003530000302824222130000030088888483000EB
:100363000018202020110E000000C02010F800000B
:1003730000070424243F240000F8088888080800A4
:100383000019212020110E0000E0108888180000B9
:10039300000F112020110E0000380808C83808008B
:1003A3000000003F0000000000708808088870000B
:1003B300001C222121221C0000E010080810E0008C
:1003C3000000312222110F00000000C0C000000015
:1003D300000000303000000000000080000000003A
:1003E3000000806000000000000080402010080032
:1003F30000010204081020004040404040404000FB
:1004030004040404040404000008102040800000D5
:100413000020100804020100007048080808F000DA
:100423000000003036010000C030C828E810E000AA
:100433000718272423140B000000C038E000000035
:10044300203C23020227382008F88888887000009F
:10045300203F202020110E00C03008080808380073
:10046300071820202010080008F808080810E000EA
:10047300203F202020100F0008F88888E80810008B
:10048300203F20202320180008F88888E80810005F
:10049300203F200003000000C03008080838000097
:1004A30007182020221E020008F808000008F80898
:1004B300203F210101213F20000808F8080800001F
:1004C3000020203F2020000000000808F808080052
:1004D300C08080807F00000008F888C028180800CA
:1004E300203F20012638200008F808000000000003
:1004F300203F20202020300008F8F800F8F80800FA
:10050300203F003F003F200008F830C00008F808F3
:10051300203F200007183F00E01008080810E00003
:100523000F10202020100F0008F808080808F0001A
:10053300203F210101010000E01008080810E0003D
:100543000F18242438504F0008F8888888887000D2
:10055300203F2000030C3020007088080808380072
:100563000038202121221C00180808F80808180068
:100573000000203F2000000008F808000008F808E9
:10058300001F202020201F000878880000C838089A
:10059300000007380E010000F80800F80008F80012
:1005A300033C0700073C03000818688080681808AC
:1005B30020302C03032C30200838C800C83808002A
:1005C3000000203F2000000010080808C838080079
:1005D3002038262120201800000000FE020202001D
:1005E3000000007F40404000000C30C000000000CD
:1005F300000000010638C00000020202FE000000F5
:10060300004040407F00000000000402020204009A
:1006130000000000000000000000000000000000D7
:1006230080808080808080800002020400000000BF
:1006330000000000000000000000808080800000B7
:100643000019242222223F2008F8008080000000A5
:10065300003F112020110E00000000808080000068
:10066300000E112020201100000000808088F80077
:10067300000E112020103F200000808080800000A9
:10068300001F222222221300008080F0888888180D
:100693000020203F20200000000080808080800018
:1006A300006B94949493600008F8008080800000AD
:1006B300203F210000203F20008098980000000088
:1006C3000020203F202000000000008098980000B8
:1006D30000C08080807F000008F8000080808000D8
:1006E300203F24022D302000000808F800000000FD
:1006F3000020203F202000008080808080808000B8
:10070300203F20003F20003F808000808080000049
:10071300203F210000203F200000808080800000D7
:10072300001F202020201F00808000808000000008
:1007330080FFA12020110E00000000808080800037
:10074300000E112020A0FF80808080008080800028
:1007530020203F2120000100000080808080800055
:100763000033242424241900008080E080800000CA
:100773000000001F20200000808000000080800017
:10078300001F202020103F20808080000080808078
:1007930000010E3008060100808000800080808008
:1007A3000F300C030C300F0000808000808080002D
:1007B3000020312E0E312000808080000080808058
:1007C30080818E7018060100008080808080800008
:1007D3000021302C2221300000000000807C020226
:1007E30000000000003F404000000000FF00000048
:1007F30000000000FF0000000002027C80000000F7
:100803000040403F00000000000601010202040412
:100813000000000000000000000000F848484849BC
:100823004E4A4848487800000000000000000000DD
:10083300000000000000000040201807007E222274
:1008430022222222227E000000000000000000007D
:100853000000000000000000004042445CC8407FEC
:1008630040C0504E44604000000000000000000003
:100873000000000000000000008040201807000076
:10088300003F4040404078000000000000000000AE
:1008930000000000000000000000F888888888FF3E
:1008A30088888888F800000000000000000000002D
:1008B300000000000000000000001F080808087F77
:1008C300888888889F80F0000000000000000000F6
:1008D300000000000000000080828282828282E2A7
:1008E300A2928A868280800000000000000000003F
:1008F3000000000000000000000000000040807FB6
:1009030000000000000000000000000000000000E4
:1009130000000000000000002424A4FEA322002203
:10092300CC0000FF000000000000000000000000F9
:100933000000000000000000080601FF000104049D
:10094300040404FF02020200000000000000000093
:100953000000000000000000101010FF1090088835
:100963008888FF88888808000000000000000000D5
:1009730000000000000000000444827F01808040EA
:10098300432C102846818000000000000000000076
:100993000000000000000000404424147F94240061
:1009A30024147F14244440000000000000000000D1
:1009B30000000000000000000080888442452911E7
:1009C3001109050300000000000000000000000002
:1009D300000000000000000000088868FF4888004D
:1009E300FE525252FE000000000000000000000012
:1009F3000000000000000000403100003B40404484
:100A03005B42427203083000000000000000000057
:100A13000000000000000000008060F8070808C81C
:100A230039CE080808880800000000000000000014
:100A33000000000000000000010000FF040201FFAD
:100A43004021060A112040000000000000000000C1
:100A53000000000000000000080888C8380C0B08DC
:100A630008E808080808080000000000000000006B
:100A73000000000000000000020100FF404141416E
:100A8300417F41414141400000000000000000005F
:100A93000000000000000000000000000000C03F54
:100AA300C000000000000000000000000000000083
:100AB3000000000000000000804020100C03000034
:100AC30000030C1020408000000000000000000024
:100AD30000000000000000008040301E101010FFD6
:100AE30010101010101000000000000000000000A3
:100AF3000000000000000000404042424242427FAA
:100B03004242424242404000000000000000000018
:100B13000000000000000000000202C2020202FE08
:100B23008282828282020000000000000000000036
:100B330000000000000000004040407F4040407F34
:100B430040404040404040000000000000000000E2
:100B53000000000000000000004042445840407F75
:100B630040405048C60000000000000000000000A4
:100B7300000000000000000000404444444444449A
:100B830044444444FF000000000000000000000053
:100B93000000000000000000002018C74444444443
:100BA300FC44444444040000000000000000000032
:100BB300000000000000000004040407040404040F
:100BC300FF0404040404040000000000000000000B
:080BD30000000000000000001A
:1013C900EF4E60157D087C07ED1DAA0470011C4ACB
:0913D90070F6EF1F70EA1E80E7B8
:0113E20022E8
:10123A00F583E5822CF582E43583F583E493FF7D1B
:01124A0001A2
:10124B00ED6004D2848002C284C283E4FEEEC394B8
:10125B0008748094805015C287EF30E704D28680E3
:10126B0002C286D287EF25E0FF0E80E1D283D284C3
:01127B002250
:10137100AC07ED24B0FFE4FD12124BEC54F0C45461
:101381000F4410FF12124BEC540F4401FF02124B99
:10140D00E4FD7F8D12124B7F1412124B7FAF02122F
:01141D004B83
:10141E00E4FD7F8D12124B7F1012124B7FAE021223
:01142E004B72
:1012BD00E4FCECC3940874809480502CEC24B0FFB3
:1012CD00E4FD12124BE4FF12124B7F1012124BE48D
:1012DD00FBEBC3948074809480500A7D01E4FF126F
:0812ED00124B0B80EC0C80CACF
:0112F50022D6
:060F9800AA07A905AF0342
:100F9E00E4FCEF24E0FBEAD3947F74809480400459
:100FAE00E4FA0909AF02AD01121371E4FCECC3942B
:100FBE000874809480501D75F010EBA42CF582E41B
:100FCE0035F0F583E582242BF582E5833402121287
:100FDE00440C80D9AF02E904FD121371E4FCECC39A
:100FEE00940874809480501D75F010EBA42CF5823B
:100FFE00E435F0F583E5822433F582E5833402127D
:05100E0012440C80D922
:0110130022BA
:0413E3008F2FA9059A
:1013E7007F017E00AD0119ED6009AD2F7C00120E63
:0313F700A580F1DD
:0113FA0022D0
:081014008F1D8D1E8A1F8B2029
:10101C00E4F525F523E523C39521505FC3E5219520
:10102C002314FD7F0A1213E3AC1FAD20CFCDCFCE1E
:10103C00CCCE120EB77C007D0A120EB78D24E5259E
:10104C007020E52114FFE523C39F5016E524700F93
:10105C00E522C3138523F0A4251DFF7B2080137587
:10106C002501E522C3138523F0A4251DFFE52424C7
:0B107C0030FBAD1E120F980523809A78
:011087002246
:0A127C008F0D8D0E8B0F8A10891163
:10128600E4F512AB0FAA10A911851282758300121C
:101296000E78FB6021AD0EAF0D120F987408250D68
:1012A600F50DD39478748094804007E4F50D050E0F
:0612B600050E051280CDBB
:0112BC00220F
:04114500AA07A90547
:10114900E4F530121371E4FCECC3941074809480BC
:10115900501575F040EBA4249BF582E5F034091293
:10116900123A05300C80E1AF02E904FD121371E473
:10117900FCECC3941074809480501575F040EBA476
:1011890024BBF582E5F0340912123A05300C80E1EE
:011199002233
:041088008F138B1522
:10108C00E4F51AF51BE5165407700BE5161313134C
:10109C00541FF51C800AE516131313541F04F51C7A
:1010AC008D1CE51CC395165034AD1CAF1312137177
:1010BC00AC13ECC395155021AB17AA18A919051B35
:1010CC00E51BAE1A7002051A14F5828E83120E7887
:0D10DC00FF7D0112124B0C80D9051C80C550
:0110E90022E4
:100D3400D2857F647E001213C9C2857F647E00124F
:100D440013C9D285E4FD7FAE12124BE4FF12124B9D
:100D54007F1012124B7F4012124B7F8112124B7F75
:100D6400CF12124B7FA112124B7FC812124B7FA6D7
:100D740012124B7FA812124B7F3F12124B7FD312D9
:100D8400124BE4FF12124B7FD512124B7F801212CA
:100D94004B7FD912124B7FF112124B7FDA12124B96
:100DA4007F1212124B7FDB12124B7F4012124B7FC9
:100DB4002012124B7F0212124B7F8D12124B7F14A2
:100DC40012124B7FA412124B7FA612124B7FAF124A
:100DD400124B7FAF12124B1212BDE4FDFF021371CE
:10135000E4FDFCC3ED9FEC9E5016E4FBEBC394024E
:101360007480948050030B80F30DBD00010C80E36A
:01137000225A
:041391008E088F092A
:10139500900000C3E5829509E5839508500A7F4CC6
:0813A5007E04121350A380EB3B
:0113AD00221D
:1011EC003A0053756E646179004D6F6E64617900DD
:1011FC0054756573646179005765646E65736461D9
:10120C00790054687572736461790046726964611F
:10121C0079005361747572646179003230002D006D
:0E122C0080828486888A8C81838587898B8D59
:0914390007261E1A0E0206031418
:021325008F1027
:10132700E4F511C3E511940874809480501AC2ED56
:10133700E5101392EEE510C313F5107F287E001217
:081347001350D2ED051180DB0B
:01134F00227B
:1012F6008F2D8D2EC2EF007F327E00121350C2ED6D
:10130600007F327E00121350D2EF007F327E001231
:0F1316001350AF2D121325AF2E121325C2EF2245
:020DE4008F0D71
:100DE600E4F50FC2EF00007F32FE121350C2ED0091
:100DF600007F327E00121350D2EF00007F327E0059
:100E0600121350AF0D121325E4F50EC3E50E940828
:100E160074809480501E30EE03430F80C2EDE50FC0
:100E2600C313F50F007F327E001213500000D2ED7F
:100E3600050E80D7C2EF00007F327E00121350C22B
:100E4600EFC2ED000000007F327E00121350D2ED9B
:100E560000007F327E00121350C2EE00007F327E09
:100E660000121350D2EE00007F327E00121350AFF4
:010E76000F6C
:010E77002258
:1013FB00120DE4EFC4540F75F00AA4FEEF540F2E38
:01140B00FFE1
:01140C0022BD
:1010EA00E4F531C3E531940774809480501C74266A
:1010FA002531F8E6FF75F00A84C454F0FEEF75F066
:10110A000A84EE25F0F6053180D9E4FD7F8E1212AD
:10111A00F6E4F531C3E5319407748094805015E5FF
:10112A003190122C93FF74262531F8E6FD1212F63F
:0B113A00053180E07D807F8E0212F600
:080BDB008F088C098D0A8B0BB9
:100BE300E5082410FF7BFF7A1179EC12127CE508EB
:100BF3002428FFAD0A7BFF7A1179EC12127CE4F50D
:100C03000CC3E50C9403748094805025E50C25E017
:100C1300FFC374859FFF1213FBEFFB7A00E50C758E
:100C2300F018A42508FFAD0AAC091211A4050C8025
:100C3300D0E50B64016003020D337F8B1213FBEFCE
:100C430014B407004003020CCD900C5A75F003A4B2
:100C5300C58325F0C58373020C7C020C89020C96B4
:100C6300020CA3020CB0020CBD020C6FE50A2402B5
:100C7300FD7BFF7A1179EE804CE50A2402FD7BFFB0
:100C83007A1179F5803FE50A2402FD7BFF7A117919
:100C9300FC8032E50A2402FD7BFF7A127904802569
:100CA300E50A2402FD7BFF7A12790E8018E50A24F7
:100CB30002FD7BFF7A127917800BE50A2402FD7B84
:100CC300FF7A12791EAF0812127CE50A2404FD7B19
:100CD300FF7A127927AF0812127CE5082420FFE57A
:100CE3000A2404FD7BFF7A12792A12127CE5082478
:100CF30038FFE50A2404FD7BFF7A12792A12127C5D
:100D03007F8D1213FBEFFB7A00E508241012119A72
:100D13007F891213FBEFFB7A00E508242812119A4E
:100D23007F871213FBEFFB7A00E508244012119A28
:010D3300229D
:0A119A00FFE50A2404FDE43509FC1A
:1011A4008F0D8C0E8D0F8A108B11AE10AF117C0039
:1011B4007D0A120EB77C007D0A120EB7ED2430FBB7
:1011C400AD0FAF0D120F98E50D2408FFC007AD0F4A
:1011D400C005AE10AF117C007D0A120EB7ED2430AD
:0811E400FBD005D007020F98B3
:03000000020F0CE0
:0C0F0C00787FE4F6D8FD758131020F53A8
:100E7800BB010CE58229F582E5833AF583E022502F
:100E880006E92582F8E622BBFE06E92582F8E22279
:0D0E9800E58229F582E5833AF583E4932293
:100EA500EF8DF0A4A8F0CF8CF0A428CE8DF0A42E61
:020EB500FE221B
:100EB700BC000BBE0029EF8DF084FFADF022E4CC1F
:100EC700F875F008EF2FFFEE33FEEC33FCEE9DECE8
:100ED700984005FCEE9DFE0FD5F0E9E4CEFD22ED2E
:100EE700F8F5F0EE8420D21CFEADF075F008EF2F78
:100EF700FFED33FD4007985006D5F0F222C398FD69
:050F07000FD5F0EA2205
:100F18000213AEE493A3F8E493A34003F68001F22E
:100F280008DFF48029E493A3F85407240CC8C333DA
:100F3800C4540F4420C8834004F456800146F6DFA9
:100F4800E4800B0102040810204080901439E47EEC
:100F5800019360BCA3FF543F30E509541FFEE4939E
:100F6800A360010ECF54C025E060A840B8E493A365
:100F7800FAE493A3F8E493A3C8C582C8CAC583CA90
:100F8800F0A3C8C582C8CAC583CADFE9DEE780BE48
:0114420000A9
:00000001FF
