:02000300166F76
:02000500168261
:0A16C800E4F5B2F5B1F5CAF5C92248
:10166F001216C8120FC312154C7F01120BE6E4FFBE
:03167F00020C6FEB
:101682007B01E4FDFCFF120E6A7FC87E0012162069
:0216920080EEE8
:10000E000000000000000000002F000000000700AC
:10001E00070000147F147F1400242A7F2A12006226
:10002E0064081323003649552250000005030000D2
:10003E0000001C224100000041221C000014083E5A
:10004E0008140008083E0808000000A06000000820
:10005E000808080800006060000000201008040274
:10006E00003E5149453E0000427F40000042615132
:10007E004946002141454B31001814127F100027CC
:10008E0045454539003C4A4949300001710905038F
:10009E0000364949493600064949291E00003636C0
:1000AE000000000056360000000814224100001423
:1000BE001414141400004122140800020151090600
:1000CE0000324959513E007C1211127C007F494981
:1000DE004936003E41414122007F4141221C007FB2
:1000EE0049494941007F09090901003E4149497AC0
:1000FE00007F0808087F0000417F4100002040413A
:10010E003F01007F08142241007F40404040007FA5
:10011E00020C027F007F0408107F003E4141413EE9
:10012E00007F09090906003E4151215E007F091931
:10013E0029460046494949310001017F0101003F2E
:10014E004040403F001F2040201F003F4038403FAE
:10015E000063140814630007087008070061514912
:10016E00454300007F41410000552A552A550000A5
:10017E0041417F0000040201020400404040404023
:10018E00000001020400002054545478007F4844BB
:10019E00443800384444442000384444487F0038F2
:1001AE005454541800087E0901020018A4A4A47C1B
:1001BE00007F080404780000447D400000408084E5
:1001CE007D00007F102844000000417F4000007C2D
:1001DE0004180478007C0804047800384444443839
:1001EE0000FC242424180018242418FC007C080485
:1001FE00040800485454542000043F444020003C5E
:10020E004040207C001C2040201C003C4030403CE4
:10021E00004428102844001CA0A0A07C0044645474
:10022E004C441414141414140000000000000000B8
:10023E000000000000000000000000F800000000B8
:10024E00000000333000000000100C06100C0600F9
:10025E00000000000000000040C07840C078400060
:10026E00043F04043F040400007088FC08300000C2
:10027E00001820FF211E0000F008F000E01800001A
:10028E0000211C031E211E0000F0088870000000D3
:10029E001E2123241927211010160E000000000025
:1002AE000000000000000000000000E01804020042
:1002BE00000000071820400000020418E0000000B3
:1002CE000040201807000000404080F080404000B1
:1002DE000202010F01020200000000F00000000007
:1002EE000101011F010101000000000000000000DB
:1002FE0080B0700000000000000000000000000050
:10030E0000010101010101010000000000000000D8
:10031E000030300000000000000000008060180473
:10032E00006018060100000000E010080810E00050
:10033E00000F102020100F00001010F80000000019
:10034E000020203F20200000007008080888700060
:10035E0000302824222130000030088888483000E0
:10036E000018202020110E000000C02010F8000000
:10037E0000070424243F240000F808888808080099
:10038E000019212020110E0000E0108888180000AE
:10039E00000F112020110E0000380808C838080080
:1003AE000000003F00000000007088080888700000
:1003BE00001C222121221C0000E010080810E00081
:1003CE000000312222110F00000000C0C00000000A
:1003DE00000000303000000000000080000000002F
:1003EE000000806000000000000080402010080027
:1003FE0000010204081020004040404040404000F0
:10040E0004040404040404000008102040800000CA
:10041E000020100804020100007048080808F000CF
:10042E000000003036010000C030C828E810E0009F
:10043E000718272423140B000000C038E00000002A
:10044E00203C23020227382008F888888870000094
:10045E00203F202020110E00C03008080808380068
:10046E00071820202010080008F808080810E000DF
:10047E00203F202020100F0008F88888E808100080
:10048E00203F20202320180008F88888E808100054
:10049E00203F200003000000C0300808083800008C
:1004AE0007182020221E020008F808000008F8088D
:1004BE00203F210101213F20000808F80808000014
:1004CE000020203F2020000000000808F808080047
:1004DE00C08080807F00000008F888C028180800BF
:1004EE00203F20012638200008F8080000000000F8
:1004FE00203F20202020300008F8F800F8F80800EF
:10050E00203F003F003F200008F830C00008F808E8
:10051E00203F200007183F00E01008080810E000F8
:10052E000F10202020100F0008F808080808F0000F
:10053E00203F210101010000E01008080810E00032
:10054E000F18242438504F0008F8888888887000C7
:10055E00203F2000030C3020007088080808380067
:10056E000038202121221C00180808F8080818005D
:10057E000000203F2000000008F808000008F808DE
:10058E00001F202020201F000878880000C838088F
:10059E00000007380E010000F80800F80008F80007
:1005AE00033C0700073C03000818688080681808A1
:1005BE0020302C03032C30200838C800C83808001F
:1005CE000000203F2000000010080808C83808006E
:1005DE002038262120201800000000FE0202020012
:1005EE000000007F40404000000C30C000000000C2
:1005FE00000000010638C00000020202FE000000EA
:10060E00004040407F00000000000402020204008F
:10061E0000000000000000000000000000000000CC
:10062E0080808080808080800002020400000000B4
:10063E0000000000000000000000808080800000AC
:10064E000019242222223F2008F80080800000009A
:10065E00003F112020110E0000000080808000005D
:10066E00000E112020201100000000808088F8006C
:10067E00000E112020103F2000008080808000009E
:10068E00001F222222221300008080F08888881802
:10069E000020203F2020000000008080808080000D
:1006AE00006B94949493600008F8008080800000A2
:1006BE00203F210000203F2000809898000000007D
:1006CE000020203F202000000000008098980000AD
:1006DE0000C08080807F000008F8000080808000CD
:1006EE00203F24022D302000000808F800000000F2
:1006FE000020203F202000008080808080808000AD
:10070E00203F20003F20003F80800080808000003E
:10071E00203F210000203F200000808080800000CC
:10072E00001F202020201F008080008080000000FD
:10073E0080FFA12020110E0000000080808080002C
:10074E00000E112020A0FF8080808000808080001D
:10075E0020203F212000010000008080808080004A
:10076E000033242424241900008080E080800000BF
:10077E000000001F2020000080800000008080000C
:10078E00001F202020103F2080808000008080806D
:10079E0000010E30080601008080008000808080FD
:1007AE000F300C030C300F00008080008080800022
:1007BE000020312E0E31200080808000008080804D
:1007CE0080818E70180601000080808080808000FD
:1007DE000021302C2221300000000000807C02021B
:1007EE0000000000003F404000000000FF0000003D
:1007FE0000000000FF0000000002027C80000000EC
:10080E000040403F00000000000601010202040407
:10081E000000000000000000000000F848484849B1
:10082E004E4A4848487800000000000000000000D2
:10083E00000000000000000040201807007E222269
:10084E0022222222227E0000000000000000000072
:10085E000000000000000000004042445CC8407FE1
:10086E0040C0504E446040000000000000000000F8
:10087E00000000000000000000804020180700006B
:10088E00003F4040404078000000000000000000A3
:10089E0000000000000000000000F888888888FF33
:1008AE0088888888F8000000000000000000000022
:1008BE00000000000000000000001F080808087F6C
:1008CE00888888889F80F0000000000000000000EB
:1008DE00000000000000000080828282828282E29C
:1008EE00A2928A8682808000000000000000000034
:1008FE000000000000000000000000000040807FAB
:10090E0000000000000000000000000000000000D9
:10091E0000000000000000002424A4FEA3220022F8
:10092E00CC0000FF000000000000000000000000EE
:10093E000000000000000000080601FF0001040492
:10094E00040404FF02020200000000000000000088
:10095E000000000000000000101010FF109008882A
:10096E008888FF88888808000000000000000000CA
:10097E0000000000000000000444827F01808040DF
:10098E00432C10284681800000000000000000006B
:10099E000000000000000000404424147F94240056
:1009AE0024147F14244440000000000000000000C6
:1009BE0000000000000000000080888442452911DC
:1009CE0011090503000000000000000000000000F7
:1009DE00000000000000000000088868FF48880042
:1009EE00FE525252FE000000000000000000000007
:1009FE000000000000000000403100003B40404479
:100A0E005B4242720308300000000000000000004C
:100A1E000000000000000000008060F8070808C811
:100A2E0039CE080808880800000000000000000009
:100A3E000000000000000000010000FF040201FFA2
:100A4E004021060A112040000000000000000000B6
:100A5E000000000000000000080888C8380C0B08D1
:100A6E0008E8080808080800000000000000000060
:100A7E000000000000000000020100FF4041414163
:100A8E00417F414141414000000000000000000054
:100A9E000000000000000000000000000000C03F49
:100AAE00C000000000000000000000000000000078
:100ABE000000000000000000804020100C03000029
:100ACE0000030C1020408000000000000000000019
:100ADE0000000000000000008040301E101010FFCB
:100AEE001010101010100000000000000000000098
:100AFE000000000000000000404042424242427F9F
:100B0E00424242424240400000000000000000000D
:100B1E000000000000000000000202C2020202FEFD
:100B2E00828282828202000000000000000000002B
:100B3E0000000000000000004040407F4040407F29
:100B4E0040404040404040000000000000000000D7
:100B5E000000000000000000004042445840407F6A
:100B6E0040405048C6000000000000000000000099
:100B7E00000000000000000000404444444444448F
:100B8E0044444444FF000000000000000000000048
:100B9E000000000000000000002018C74444444438
:100BAE00FC44444444040000000000000000000027
:100BBE000000000000000000040404070404040404
:100BCE00FF04040404040400000000000000000000
:080BDE0000000000000000000F
:10163D00EF4E60157D087C07ED1DAA0470011C4A54
:09164D0070F6EF1F70EA1E80E741
:011656002271
:1014C900F583E5822CF582E43583F583E493FF7D8A
:0114D9000111
:1014DA00ED6004D2848002C284C283E4FEEEC39427
:1014EA0008748094805015C287EF30E704D2868052
:1014FA0002C286D287EF25E0FF0E80E1D283D28432
:01150A0022BE
:10160000AC07ED24B0FFE4FD1214DAEC54F0C4543E
:101610000F4410FF1214DAEC540F4401FF0214DAE5
:1016A600E4FD7F8D1214DA7F141214DA7FAF021470
:0116B600DA59
:1016B700E4FD7F8D1214DA7F101214DA7FAE021464
:0116C700DA48
:10154C00E4FCECC3940874809480502CEC24B0FF21
:10155C00E4FD1214DAE4FF1214DA7F101214DAE448
:10156C00FBEBC3948074809480500A7D01E4FF12DD
:08157C0014DA0B80EC0C80CAAC
:011584002244
:06122700AA07A905AF03B0
:10122D00E4FCEF24E0FBEAD3947F748094804004C7
:10123D00E4FA0909AF02AD01121600E4FCECC39407
:10124D000874809480501D75F010EBA42CF582E489
:10125D0035F0F583E5822436F582E58334021214E8
:10126D00D30C80D9AF02E904FD121600E4FCECC3E7
:10127D00940874809480501D75F010EBA42CF582A9
:10128D00E435F0F583E582243EF582E583340212E0
:05129D0014D30C80D900
:0112A2002229
:041657008F36A9051C
:10165B007F017E00AD0119ED6009AD367C001211E2
:03166B003480F1D7
:01166E002259
:0812A3008F2B8D2C8A2D8B2E60
:1012AB00E4F533F531E531C3952F505FC3E52F9549
:1012BB003114FD7F0A121657AC2DAD2ECFCDCFCEEC
:1012CB00CCCE1211467C007D0A1211468D32E533CD
:1012DB007020E52F14FFE531C39F5016E532700FD8
:1012EB00E530C3138531F0A4252BFF7B20801375CC
:1012FB003301E530C3138531F0A4252BFFE53224F0
:0B130B0030FBAD2C1212270531809A38
:0113160022B4
:0A150B008F138D148B158A168917B3
:10151500E4F518AB15AA16A917851882758300126C
:101525001107FB6021AD14AF1312122774082513A0
:10153500F513D39478748094804007E4F51305146B
:061545000514051880CD1D
:01154B00227D
:0413D400AA07A905B6
:1013D800E4F537121600E4FCECC394107480948092
:1013E800501575F040EBA424A6F582E5F0340912F7
:1013F80014C905370C80E1AF02E904FD121600E4B8
:10140800FCECC3941074809480501575F040EBA4E4
:1014180024C6F582E5F034091214C905370C80E1B9
:0114280022A1
:041317008F218B2374
:10131B00E4F528F529E5245407700BE52413131382
:10132B00541FF52A800AE524131313541F04F52ABE
:10133B008D2AE52AC395245034AD2AAF211216000D
:10134B00AC21ECC395235021AB25AA26A92705294F
:10135B00E529AE287002052814F5828E8312110739
:0D136B00FF7D011214DA0C80D9052A80C51F
:011378002252
:100FC300D2857F647E0012163DC2857F647E001247
:100FD300163DD285E4FD7FAE1214DAE4FF1214DA73
:100FE3007F101214DA7F401214DA7F811214DA7F31
:100FF300CF1214DA7FA11214DA7FC81214DA7FA693
:101003001214DA7FA81214DA7F3F1214DA7FD31294
:1010130014DAE4FF1214DA7FD51214DA7F80121483
:10102300DA7FD91214DA7FF11214DA7FDA1214DAC2
:101033007F121214DA7FDB1214DA7F401214DA7F84
:10104300201214DA7F021214DA7F8D1214DA7F145D
:101053001214DA7FA41214DA7FA61214DA7FAF1205
:1010630014DA7FAF1214DA12154CE4FDFF021600F6
:1015DF00E4FDFCC3ED9FEC9E5016E4FBEBC39402BD
:1015EF007480948050030B80F30DBD00010C80E3D9
:0115FF0022C9
:041620008E0E8F0F8C
:10162400900000C3E582950FE583950E500A7F4C28
:081634007E041215DFA380EB18
:01163C00228B
:10147B003A0053756E646179004D6F6E646179004B
:10148B0054756573646179005765646E6573646147
:10149B00790054687572736461790046726964618E
:1014AB0079005361747572646179003230002D00DC
:0E14BB0080828486888A8C81838587898B8DC8
:0916D20007191E1A0E020603148A
:0215B4008F1690
:1015B600E4F517C3E517940874809480501AC2EDB9
:1015C600E5161392EEE516C313F5167F287E001274
:0815D60015DFD2ED051780DBE3
:0115DE0022EA
:101585008F348D35C2EF007F327E001215DFC2ED3C
:10159500007F327E001215DFD2EF007F327E00120F
:0F15A50015DFAF341215B4AF351215B4C2EF22F3
:021073008F13D9
:10107500E4F515C2EF00007F32FE1215DFC2ED0068
:10108500007F327E001215DFD2EF00007F327E0036
:101095001215DFAF131215B4E4F514C3E514940863
:1010A50074809480501E30EE03431580C2EDE51523
:1010B500C313F515007F327E001215DF0000D2ED57
:1010C500051480D7C2EF00007F327E001215DFC203
:1010D500EFC2ED000000007F327E001215DFD2ED79
:1010E50000007F327E001215DFC2EE00007F327EE7
:1010F500001215DFD2EE00007F327E001215DFAF41
:0111050015D4
:0111060022C6
:10169400121073EFC4540F75F00AA4FEEF540F2E0A
:0116A400FF46
:0116A5002222
:10137900E4F538C3E538940774809480501C7419D7
:101389002538F8E6FF75F00A84C454F0FEEF75F0CD
:101399000A84EE25F0F6053880D9E4FD7F8E121512
:1013A90085E4F538C3E5389407748094805015E5D1
:1013B900389014BB93FF74192538F8E6FD1215858A
:0B13C900053880E07D807F8E021585D6
:080E6A008F0E8C0F8D108B110F
:100E7200E50E2410FF7BFF7A14797B12150BE50E29
:100E82002428FFAD107BFF7A14797B12150BE4F551
:100E920012C3E5129403748094805025E51225E074
:100EA200FFC374859FFF121694EFFB7A00E512755B
:100EB200F018A4250EFFAD10AC0F121433051280EA
:100EC200D0E51164016003020FC27F8B121694EF0A
:100ED20014B407004003020F5C900EE975F003A4FE
:100EE200C58325F0C58373020F0B020F18020F256D
:100EF200020F32020F3F020F4C020EFEE5102402D7
:100F0200FD7BFF7A14797D804CE5102402FD7BFF86
:100F12007A147984803FE5102402FD7BFF7A1479EC
:100F22008B8032E5102402FD7BFF7A1479938025B1
:100F3200E5102402FD7BFF7A14799D8018E51024C8
:100F420002FD7BFF7A1479A6800BE5102402FD7B5B
:100F5200FF7A1479ADAF0E12150BE5102404FD7B58
:100F6200FF7A1479B6AF0E12150BE50E2420FFE5B9
:100F7200102404FD7BFF7A1479B912150BE50E24B7
:100F820038FFE5102404FD7BFF7A1479B912150BA2
:100F92007F8D121694EFFB7A00E50E2410121429AD
:100FA2007F89121694EFFB7A00E50E242812142989
:100FB2007F87121694EFFB7A00E50E244012142963
:010FC200220C
:0A142900FFE5102404FDE4350FFC7C
:101433008F138C148D158A168B17AE16AF177C007D
:101443007D0A1211467C007D0A121146ED2430FB01
:10145300AD15AF13121227E5132408FFC007AD150E
:10146300C005AE16AF177C007D0A121146ED24307D
:08147300FBD005D0070212278F
:100BE600EFD3940140037FFF22743A2F2FF8E620BB
:100BF600E5F4C2AFE64430F6D2AFAE0CEEC39F507A
:100C0600210E743D2EF8E6F908E618BE010274FFBF
:100C1600FDED69600909E71919F7090980F3161648
:100C260080DAEED39F400405810581EED39F4022F2
:100C3600743D2EF808E6F9EEB50C02A981180606F1
:100C4600E6FDED6960091919E70909F71980F31E30
:100C560080D9EF243DF8E604F8EF2F0490000393C3
:090C6600F608EF2F93F67F00223F
:100C6F00EFD3940140037FFF22EF23243AF8E630BD
:100C7F00E5F4C2AFE6548CF6D2AFE50CB5070A74B3
:100C8F003D2FF8E6F581020D73502E743E2FF8E6D6
:100C9F00BF010274FFFD18E6F9743D2FF8FBE6FC67
:100CAF00E96C6008A805E7F61D1980F4A803A605EE
:100CBF001FE50CB507E37F0022743E2FF8E6FD1801
:100CCF0086010F743D2FF8A601088604E50CB507C1
:100CDF0002AC81ED6C60080D09A805E6F780F4E51C
:090CEF000CB507DE89817F0022AB
:03000B00020CFDE7
:100CF800C2AF80FE32120CFC85D00B75D008AAE07A
:100D0800C28CE58A24F7F58AE58C34D8F58CD28C28
:100D1800EC243EF8E6BC010274FFC39581B41400CC
:100D280040CE7902783916E608700BC2AFE630E19A
:100D3800034418F6D2AF08D9EDEA8BD0300001226F
:100D4800D50DFCC0E0C0D0C0F0C083C082C000C0D8
:100D580001C002C003C004C005C006C007E50C23DB
:100D6800243AF87440C2AF46F6D2AFD200E50CFF81
:100D780023243AF80F0808BF02047F00783AE630C7
:100D8800E4F200E50CC39F5020050C743D250CF8D7
:100D9800E6FDA68108E6AE0CBE010274FFCDF8E8B8
:100DA8006D60E008E6C0E080F6E50CD39F4027E5DB
:100DB8000C243EF8E6AE0CBE010274FFFD18E6CD29
:100DC800F8E5816D6006D0E0F61880F5E50C243D65
:100DD800C8F6150C80D3750D05E50C23243AF87F69
:100DE80004C2AFE610E61E30E00310E20C7F0030CC
:050DF800E10730E304F7
:100DFD007F0854F4547CC6D2AF54804207C20022FF
:100E0D00F6D2AFD007D006D005D004D003D002D093
:100E1D0001D000D082D083D0F0D0D0D0E0C200225B
:100E2D00783DA68174016006FF0876FFDFFB7F0227
:100E3D00E47839F608F608DFFA783A763090000350
:100E4D00740193C0E0E493C0E0750D05438901750D
:0D0E5D008AF0758CD8D28CD2AFD2A92201B8
:0300000002119B4F
:0C119B00787FE4F6D8FD75813E0211E279
:10110700BB010CE58229F582E5833AF583E022509D
:1011170006E92582F8E622BBFE06E92582F8E222E7
:0D112700E58229F582E5833AF583E4932201
:10113400EF8DF0A4A8F0CF8CF0A428CE8DF0A42ECF
:02114400FE2289
:10114600BC000BBE0029EF8DF084FFADF022E4CC8D
:10115600F875F008EF2FFFEE33FEEC33FCEE9DEC56
:10116600984005FCEE9DFE0FD5F0E9E4CEFD22ED9C
:10117600F8F5F0EE8420D21CFEADF075F008EF2FE6
:10118600FFED33FD4007985006D5F0F222C398FDD7
:051196000FD5F0EA2274
:1011A700020E2DE493A3F8E493A34003F68001F223
:1011B70008DFF48029E493A3F85407240CC8C33349
:1011C700C4540F4420C8834004F456800146F6DF18
:1011D700E4800B01020408102040809016D2E47EC0
:1011E700019360BCA3FF543F30E509541FFEE4930D
:1011F700A360010ECF54C025E060A840B8E493A3D4
:10120700FAE493A3F8E493A3C8C582C8CAC583CAFE
:10121700F0A3C8C582C8CAC583CADFE9DEE780BEB6
:0116DB00000E
:00000001FF
